:100000000C942A000C9447000C9447000C94470071
:100010000C9447000C9447000C9447000C94470044
:100020000C9447000C9447000C9447000C94470034
:100030000C9447000C9447000C9447000C94470024
:100040000C9447000C9447000C9447000C94470014
:100050000C94470011241FBECFE5D4E0DEBFCDBF16
:1000600010E0A0E6B0E0E4E2F2E002C005900D92FC
:10007000AA36B107D9F720E0AAE6B0E001C01D9288
:10008000AC36B207E1F70E9480000C9410010C948A
:100090000000AC019C01ADECBCEC0E940101FC0134
:1000A000F695E795F695E795F695E7959F01220F6A
:1000B000331FCF01880F991F880F991F880F991F31
:1000C000820F931F481B590B12BA81E082BBE05A82
:1000D000FF4F808185BB8FE99FE00197F1F700C05A
:1000E000000012BA82E082BBFA01E05AFF4F808121
:1000F00085BB8FE99FE00197F1F700C000000895EC
:100100001ABA8FEF84BB85BB83E081BB12BA8091A2
:100110006A0090916B000E9449008FE99FE001976F
:10012000F1F700C00000C89935C0C8990DC0809192
:100130006A0090916B000E9449008FE99FE001974F
:10014000F1F700C00000F1CF80916A0090916B0040
:10015000019690936B0080936A008436910574F049
:1001600010926B0010926A0080E090E00E944900BB
:100170008FE99FE00197F1F700C0000080916A00CD
:1001800090916B000E9449008FE99FE00197F1F781
:1001900000C00000C999BBCFC9990DC080916A0009
:1001A00090916B000E9449008FE99FE00197F1F761
:1001B00000C00000F1CF80916A0090916B00019720
:1001C00090936B0080936A00992374F483E690E027
:1001D00090936B0080936A000E9449008FE99FE032
:1001E0000197F1F700C0000080916A0090916B00C8
:1001F0000E9449008FE99FE00197F1F700C00000DD
:1002000086CFA29FB001B39FC001A39F700D811D37
:100210001124911DB29F700D811D1124911D08950F
:04022000F894FFCF80
:0A022400C0F9A4B0999282F880900E
:00000001FF
