S016000055534152545F41746D65676131362E737265636A
S11300000C9433000C943D000C943D000C943D0082
S11300100C943D000C943D000C943D000C943D0068
S11300200C943D000C943D000C943D000C944F0046
S11300300C943D000C943D000C943D000C943D0048
S11300400C943D000C943D000C943D000C943D0038
S11300500C943D00660069006C006F00720075002E
S113006078007B007E0011241FBECFE5D4E0DEBF04
S1130070CDBF0E9449000C9493000C94000010BC66
S113008083E389B91BB886E880BD88E98AB9789486
S113009008950E943F008FEF87BB18BAFFCF1F92CD
S11300A00F920FB60F9211248F939F93AF93BF9328
S11300B0EF93FF93ECB18E2F90E0FC01F097E930C1
S11300C0F105F8F4E65DFF4F0C948D0081E088BBE8
S11300D019C082E088BB16C084E088BB13C088E0E6
S11300E088BB10C080E188BB0DC080E288BB0AC019
S11300F080E488BB07C080E888BB04C08FEF88BB5E
S113010001C018BAFF91EF91BF91AF919F918F9168
S11301100F900FBE0F901F901895EE0FFF1F0590C4
S10D0120F491E02D0994F894FFCF48
S9030000FC
