:100000000C942A000C943C000C943C000C943C0092
:100010000C943C000C943C000C943C000C943C0070
:100020000C943C000C943C000C943C000C943C0060
:100030000C943C000C943C000C9458000C943C0034
:100040000C943C000C943C000C943C000C943C0040
:100050000C943C0011241FBECFE5D4E0DEBFCDBF21
:1000600020E0A0E6B0E001C01D92A036B207E1F7A3
:100070000E9448000C946F000C940000806487B9C3
:100080008BEC86B97894089583B78B6683BF089507
:100090008FEF87BB1ABA84E00E943E000E944400A2
:1000A00088B3846088BB98B382E0892788BBF8CF87
:1000B0001F920F920FB60F9211248F939F9388B3C4
:1000C0008B7F88BB84B195B18CBF86B1806486B9C3
:1000D0009F918F910F900FBE0F901F901895F894DD
:0200E000FFCF50
:00000001FF
