:100000000C942A000C9434000C9434000C943400AA
:100010000C9434000C9434000C9434000C94340090
:100020000C9434000C9434000C9434000C94340080
:100030000C9434000C9434000C9434000C94340070
:100040000C9434000C9434000C9434000C94340060
:100050000C94340011241FBECFE5D4E0DEBFCDBF29
:100060000E9436000C9445000C9400008FEF84BB76
:100070008FEF85BB2FEF89E698E1215080409040BB
:0E008000E1F700C0000015BAF3CFF894FFCFEF
:00000001FF
