:100000000C9433000C943D000C943D000C943D0086
:100010000C943D000C943D000C943D000C943D006C
:100020000C943D000C943D000C943D000C943D005C
:100030000C943D000C943D000C943D000C943D004C
:100040000C943D000C943D000C943D000C943D003C
:100050000C943D0059005B005F00630067006B007B
:100060006F007300770011241FBECFE5D4E0DEBF20
:10007000CDBF0E943F000C9481000C9400008FEFD4
:100080008ABB1BBA17BA81E088BB80E090E0B099C8
:1000900008C0B09BFECF01968930910514F080E036
:1000A00090E08930910598F7FC01E65DFF4F0C94D4
:1000B0007B001BBAECCF2BB321602BBBE8CF2BB35B
:1000C00022602BBBE4CF2BB324602BBBE0CF2BB340
:1000D00028602BBBDCCF2BB320612BBBD8CF2BB33D
:1000E00020622BBBD4CF2BB320642BBBD0CF2BB340
:1000F00020682BBBCCCFEE0FFF1F0590F491E02DB5
:060100000994F894FFCF02
:00000001FF
