:100000000C942A000C9447000C9447000C94470071
:100010000C9447000C9447000C9447000C94470044
:100020000C9447000C94E2000C9447000C94470099
:100030000C9447000C9447000C9447000C94470024
:100040000C9447000C9447000C9447000C94470014
:100050000C94470011241FBECFE5D4E0DEBFCDBF16
:1000600010E0A0E6B0E0EAE4F2E002C005900D92F4
:10007000AE36B107D9F720E0AEE6B0E001C01D9280
:10008000A037B207E1F70E948B000C9423010C9477
:1000900000006AE070E00E94FB0018BA21E028BB73
:1000A000FB01EC59FF4F20812BBBE7ECF0E03197CF
:1000B000F1F700C0000018BA22E028BBFC01EC599F
:1000C000FF4F80818BBB87EC90E00197F1F700C078
:1000D000000008956AE070E00E94FB0018BA24E076
:1000E00028BBFB01EC59FF4F208125BBE7ECF0E07A
:1000F0003197F1F700C0000018BA28E028BBFC01D6
:10010000EC59FF4F808185BB87EC90E00197F1F7B8
:1001100000C0000008958FEF8ABB1BBA9FE097BB19
:1001200018BA84BB15BA83E083BF82E882BF81E03E
:1001300089BF789480916200909163000E94490089
:1001400080916000909161000E946A0080916E0031
:1001500090916F0080369A4E71F580916200909177
:10016000630001969093630080936200CD9798F0AE
:100170001092630010926200809160009091610083
:1001800001969093610080936000499720F010924F
:1001900061001092600080916200909163000E9463
:1001A000490080916000909161000E946A00109265
:1001B0006F0010926E0087EC90E00197F1F700C09D
:1001C0000000B8CF1F920F920FB60F9211248F9399
:1001D0009F9382E882BF80916E0090916F0001969C
:1001E00090936F0080936E009F918F910F900FBE40
:1001F0000F901F90189597FB072E16F4009407D0C8
:1002000077FD09D00E940F0107FC05D03EF49095C0
:1002100081959F4F0895709561957F4F0895AA1B12
:10022000BB1B51E107C0AA1FBB1FA617B70710F0E1
:10023000A61BB70B881F991F5A95A9F78095909513
:0A024000BC01CD010895F894FFCF32
:0E024A0001000100C0F9A4B0999282F88090E2
:00000001FF
